{
  "_format": "hh-sol-artifact-1",
  "contractName": "Lottery",
  "sourceName": "contracts/Lottery.sol",
  "abi": [
    {
      "inputs": [],
      "stateMutability": "nonpayable",
      "type": "constructor"
    },
    {
      "inputs": [],
      "name": "donations",
      "outputs": [],
      "stateMutability": "payable",
      "type": "function"
    },
    {
      "inputs": [],
      "name": "enter",
      "outputs": [],
      "stateMutability": "payable",
      "type": "function"
    },
    {
      "inputs": [],
      "name": "getContractBalance",
      "outputs": [
        {
          "internalType": "uint256",
          "name": "",
          "type": "uint256"
        }
      ],
      "stateMutability": "view",
      "type": "function"
    },
    {
      "inputs": [],
      "name": "getPlayers",
      "outputs": [
        {
          "internalType": "address payable[]",
          "name": "",
          "type": "address[]"
        }
      ],
      "stateMutability": "view",
      "type": "function"
    },
    {
      "inputs": [],
      "name": "getRandomNumber",
      "outputs": [
        {
          "internalType": "bytes32",
          "name": "requestId",
          "type": "bytes32"
        }
      ],
      "stateMutability": "nonpayable",
      "type": "function"
    },
    {
      "inputs": [
        {
          "internalType": "uint256",
          "name": "lottery",
          "type": "uint256"
        }
      ],
      "name": "getWinnerByLottery",
      "outputs": [
        {
          "internalType": "address payable",
          "name": "",
          "type": "address"
        }
      ],
      "stateMutability": "view",
      "type": "function"
    },
    {
      "inputs": [
        {
          "internalType": "uint256",
          "name": "",
          "type": "uint256"
        }
      ],
      "name": "lotteryHistory",
      "outputs": [
        {
          "internalType": "address payable",
          "name": "",
          "type": "address"
        }
      ],
      "stateMutability": "view",
      "type": "function"
    },
    {
      "inputs": [],
      "name": "lotteryId",
      "outputs": [
        {
          "internalType": "uint256",
          "name": "",
          "type": "uint256"
        }
      ],
      "stateMutability": "view",
      "type": "function"
    },
    {
      "inputs": [],
      "name": "owner",
      "outputs": [
        {
          "internalType": "address payable",
          "name": "",
          "type": "address"
        }
      ],
      "stateMutability": "view",
      "type": "function"
    },
    {
      "inputs": [],
      "name": "payWinner",
      "outputs": [
        {
          "internalType": "uint256",
          "name": "",
          "type": "uint256"
        }
      ],
      "stateMutability": "nonpayable",
      "type": "function"
    },
    {
      "inputs": [],
      "name": "pickWinner",
      "outputs": [],
      "stateMutability": "nonpayable",
      "type": "function"
    },
    {
      "inputs": [
        {
          "internalType": "uint256",
          "name": "",
          "type": "uint256"
        }
      ],
      "name": "players",
      "outputs": [
        {
          "internalType": "address payable",
          "name": "",
          "type": "address"
        }
      ],
      "stateMutability": "view",
      "type": "function"
    },
    {
      "inputs": [],
      "name": "randomResult",
      "outputs": [
        {
          "internalType": "uint256",
          "name": "",
          "type": "uint256"
        }
      ],
      "stateMutability": "view",
      "type": "function"
    },
    {
      "inputs": [
        {
          "internalType": "bytes32",
          "name": "requestId",
          "type": "bytes32"
        },
        {
          "internalType": "uint256",
          "name": "randomness",
          "type": "uint256"
        }
      ],
      "name": "rawFulfillRandomness",
      "outputs": [],
      "stateMutability": "nonpayable",
      "type": "function"
    },
    {
      "stateMutability": "payable",
      "type": "receive"
    }
  ],
  "bytecode": "0x60c060405234801561001057600080fd5b50733d2341adb2d31f1c5530cdc622016af293177ae073b0897686c545045afc77cf20ec7a532e3120e0f18173ffffffffffffffffffffffffffffffffffffffff1660a08173ffffffffffffffffffffffffffffffffffffffff16815250508073ffffffffffffffffffffffffffffffffffffffff1660808173ffffffffffffffffffffffffffffffffffffffff168152505050507ff86195cf7690c55907b2b611ebb7343a6f649bff128701cc542f0569e2c549da60001b600581905550655af3107a400060068190555033600160006101000a81548173ffffffffffffffffffffffffffffffffffffffff021916908373ffffffffffffffffffffffffffffffffffffffff160217905550600160038190555060805160a05161162d610158600039600081816104f40152610aa90152600081816108a20152610a6d015261162d6000f3fe6080604052600436106100e15760003560e01c806394985ddd1161007f578063e580f47b11610059578063e580f47b146102a9578063e8757d19146102d4578063e97dcb62146102de578063f71d96cb146102e8576100e8565b806394985ddd1461022a578063be71248a14610253578063dbdff2c11461027e576100e8565b80636d6fe230116100bb5780636d6fe2301461016c5780636f9fb98a146101a95780638b5b9ccc146101d45780638da5cb5b146101ff576100e8565b8063281d098d146100ed57806342619f661461012a5780635d495aea14610155576100e8565b366100e857005b600080fd5b3480156100f957600080fd5b50610114600480360381019061010f9190610d0a565b610325565b6040516101219190610d78565b60405180910390f35b34801561013657600080fd5b5061013f610362565b60405161014c9190610da2565b60405180910390f35b34801561016157600080fd5b5061016a610368565b005b34801561017857600080fd5b50610193600480360381019061018e9190610d0a565b610403565b6040516101a09190610d78565b60405180910390f35b3480156101b557600080fd5b506101be610436565b6040516101cb9190610da2565b60405180910390f35b3480156101e057600080fd5b506101e961043e565b6040516101f69190610e7b565b60405180910390f35b34801561020b57600080fd5b506102146104cc565b6040516102219190610d78565b60405180910390f35b34801561023657600080fd5b50610251600480360381019061024c9190610ed3565b6104f2565b005b34801561025f57600080fd5b5061026861058e565b6040516102759190610da2565b60405180910390f35b34801561028a57600080fd5b5061029361089b565b6040516102a09190610f22565b60405180910390f35b3480156102b557600080fd5b506102be61098e565b6040516102cb9190610da2565b60405180910390f35b6102dc610994565b005b6102e66109a8565b005b3480156102f457600080fd5b5061030f600480360381019061030a9190610d0a565b610a1f565b60405161031c9190610d78565b60405180910390f35b60006004600083815260200190815260200160002060009054906101000a900473ffffffffffffffffffffffffffffffffffffffff169050919050565b60075481565b600160009054906101000a900473ffffffffffffffffffffffffffffffffffffffff1673ffffffffffffffffffffffffffffffffffffffff163373ffffffffffffffffffffffffffffffffffffffff16146103f8576040517f08c379a00000000000000000000000000000000000000000000000000000000081526004016103ef90610fc0565b60405180910390fd5b61040061089b565b50565b60046020528060005260406000206000915054906101000a900473ffffffffffffffffffffffffffffffffffffffff1681565b600047905090565b606060028054806020026020016040519081016040528092919081815260200182805480156104c257602002820191906000526020600020905b8160009054906101000a900473ffffffffffffffffffffffffffffffffffffffff1673ffffffffffffffffffffffffffffffffffffffff1681526020019060010190808311610478575b5050505050905090565b600160009054906101000a900473ffffffffffffffffffffffffffffffffffffffff1681565b7f000000000000000000000000000000000000000000000000000000000000000073ffffffffffffffffffffffffffffffffffffffff163373ffffffffffffffffffffffffffffffffffffffff1614610580576040517f08c379a00000000000000000000000000000000000000000000000000000000081526004016105779061102c565b60405180910390fd5b61058a8282610a5e565b5050565b6000600160009054906101000a900473ffffffffffffffffffffffffffffffffffffffff1673ffffffffffffffffffffffffffffffffffffffff163373ffffffffffffffffffffffffffffffffffffffff1614610620576040517f08c379a000000000000000000000000000000000000000000000000000000000815260040161061790610fc0565b60405180910390fd5b600060075411610665576040517f08c379a000000000000000000000000000000000000000000000000000000000815260040161065c906110be565b60405180910390fd5b600060028054905060075461067a919061110d565b9050600281815481106106905761068f61113e565b5b9060005260206000200160009054906101000a900473ffffffffffffffffffffffffffffffffffffffff1673ffffffffffffffffffffffffffffffffffffffff166108fc60326064476106e3919061119c565b6106ed91906111cd565b9081150290604051600060405180830381858888f19350505050158015610718573d6000803e3d6000fd5b50600160009054906101000a900473ffffffffffffffffffffffffffffffffffffffff1673ffffffffffffffffffffffffffffffffffffffff166108fc479081150290604051600060405180830381858888f19350505050158015610781573d6000803e3d6000fd5b50600281815481106107965761079561113e565b5b9060005260206000200160009054906101000a900473ffffffffffffffffffffffffffffffffffffffff1660046000600354815260200190815260200160002060006101000a81548173ffffffffffffffffffffffffffffffffffffffff021916908373ffffffffffffffffffffffffffffffffffffffff1602179055506003600081548092919061082790611227565b9190505550600067ffffffffffffffff81111561084757610846611270565b5b6040519080825280602002602001820160405280156108755781602001602082028036833780820191505090505b506002908051906020019061088b929190610c28565b5060006007819055508091505090565b60006006547f000000000000000000000000000000000000000000000000000000000000000073ffffffffffffffffffffffffffffffffffffffff166370a08231306040518263ffffffff1660e01b81526004016108f991906112c0565b602060405180830381865afa158015610916573d6000803e3d6000fd5b505050506040513d601f19601f8201168201806040525081019061093a91906112f0565b101561097b576040517f08c379a000000000000000000000000000000000000000000000000000000000815260040161097290611369565b60405180910390fd5b610989600554600654610a69565b905090565b60035481565b6509184e72a00034116109a657600080fd5b565b6509184e72a00034116109ba57600080fd5b6002339080600181540180825580915050600190039060005260206000200160009091909190916101000a81548173ffffffffffffffffffffffffffffffffffffffff021916908373ffffffffffffffffffffffffffffffffffffffff160217905550565b60028181548110610a2f57600080fd5b906000526020600020016000915054906101000a900473ffffffffffffffffffffffffffffffffffffffff1681565b806007819055505050565b60007f000000000000000000000000000000000000000000000000000000000000000073ffffffffffffffffffffffffffffffffffffffff16634000aea07f000000000000000000000000000000000000000000000000000000000000000084866000604051602001610add929190611389565b6040516020818303038152906040526040518463ffffffff1660e01b8152600401610b0a9392919061144b565b6020604051808303816000875af1158015610b29573d6000803e3d6000fd5b505050506040513d601f19601f82011682018060405250810190610b4d91906114c1565b506000610b6f8460003060008089815260200190815260200160002054610bb9565b9050600160008086815260200190815260200160002054610b9091906114ee565b60008086815260200190815260200160002081905550610bb08482610bf5565b91505092915050565b600084848484604051602001610bd29493929190611544565b6040516020818303038152906040528051906020012060001c9050949350505050565b60008282604051602001610c0a9291906115cb565b60405160208183030381529060405280519060200120905092915050565b828054828255906000526020600020908101928215610ca1579160200282015b82811115610ca05782518260006101000a81548173ffffffffffffffffffffffffffffffffffffffff021916908373ffffffffffffffffffffffffffffffffffffffff16021790555091602001919060010190610c48565b5b509050610cae9190610cb2565b5090565b5b80821115610ccb576000816000905550600101610cb3565b5090565b600080fd5b6000819050919050565b610ce781610cd4565b8114610cf257600080fd5b50565b600081359050610d0481610cde565b92915050565b600060208284031215610d2057610d1f610ccf565b5b6000610d2e84828501610cf5565b91505092915050565b600073ffffffffffffffffffffffffffffffffffffffff82169050919050565b6000610d6282610d37565b9050919050565b610d7281610d57565b82525050565b6000602082019050610d8d6000830184610d69565b92915050565b610d9c81610cd4565b82525050565b6000602082019050610db76000830184610d93565b92915050565b600081519050919050565b600082825260208201905092915050565b6000819050602082019050919050565b610df281610d57565b82525050565b6000610e048383610de9565b60208301905092915050565b6000602082019050919050565b6000610e2882610dbd565b610e328185610dc8565b9350610e3d83610dd9565b8060005b83811015610e6e578151610e558882610df8565b9750610e6083610e10565b925050600181019050610e41565b5085935050505092915050565b60006020820190508181036000830152610e958184610e1d565b905092915050565b6000819050919050565b610eb081610e9d565b8114610ebb57600080fd5b50565b600081359050610ecd81610ea7565b92915050565b60008060408385031215610eea57610ee9610ccf565b5b6000610ef885828601610ebe565b9250506020610f0985828601610cf5565b9150509250929050565b610f1c81610e9d565b82525050565b6000602082019050610f376000830184610f13565b92915050565b600082825260208201905092915050565b7f6f6e6c7920746865206f776e65722063616e2063616c6c20746869732066756e60008201527f6374696f6e000000000000000000000000000000000000000000000000000000602082015250565b6000610faa602583610f3d565b9150610fb582610f4e565b604082019050919050565b60006020820190508181036000830152610fd981610f9d565b9050919050565b7f4f6e6c7920565246436f6f7264696e61746f722063616e2066756c66696c6c00600082015250565b6000611016601f83610f3d565b915061102182610fe0565b602082019050919050565b6000602082019050818103600083015261104581611009565b9050919050565b7f736f75726365206f662072616e646f6d6e65737320726571756972656420626560008201527f666f72652063686f6f73696e672077696e6e6572000000000000000000000000602082015250565b60006110a8603483610f3d565b91506110b38261104c565b604082019050919050565b600060208201905081810360008301526110d78161109b565b9050919050565b7f4e487b7100000000000000000000000000000000000000000000000000000000600052601260045260246000fd5b600061111882610cd4565b915061112383610cd4565b925082611133576111326110de565b5b828206905092915050565b7f4e487b7100000000000000000000000000000000000000000000000000000000600052603260045260246000fd5b7f4e487b7100000000000000000000000000000000000000000000000000000000600052601160045260246000fd5b60006111a782610cd4565b91506111b283610cd4565b9250826111c2576111c16110de565b5b828204905092915050565b60006111d882610cd4565b91506111e383610cd4565b9250817fffffffffffffffffffffffffffffffffffffffffffffffffffffffffffffffff048311821515161561121c5761121b61116d565b5b828202905092915050565b600061123282610cd4565b91507fffffffffffffffffffffffffffffffffffffffffffffffffffffffffffffffff8214156112655761126461116d565b5b600182019050919050565b7f4e487b7100000000000000000000000000000000000000000000000000000000600052604160045260246000fd5b60006112aa82610d37565b9050919050565b6112ba8161129f565b82525050565b60006020820190506112d560008301846112b1565b92915050565b6000815190506112ea81610cde565b92915050565b60006020828403121561130657611305610ccf565b5b6000611314848285016112db565b91505092915050565b7f4e6f7420656e6f756768204c494e4b20696e20636f6e74726163740000000000600082015250565b6000611353601b83610f3d565b915061135e8261131d565b602082019050919050565b6000602082019050818103600083015261138281611346565b9050919050565b600060408201905061139e6000830185610f13565b6113ab6020830184610d93565b9392505050565b600081519050919050565b600082825260208201905092915050565b60005b838110156113ec5780820151818401526020810190506113d1565b838111156113fb576000848401525b50505050565b6000601f19601f8301169050919050565b600061141d826113b2565b61142781856113bd565b93506114378185602086016113ce565b61144081611401565b840191505092915050565b600060608201905061146060008301866112b1565b61146d6020830185610d93565b818103604083015261147f8184611412565b9050949350505050565b60008115159050919050565b61149e81611489565b81146114a957600080fd5b50565b6000815190506114bb81611495565b92915050565b6000602082840312156114d7576114d6610ccf565b5b60006114e5848285016114ac565b91505092915050565b60006114f982610cd4565b915061150483610cd4565b9250827fffffffffffffffffffffffffffffffffffffffffffffffffffffffffffffffff038211156115395761153861116d565b5b828201905092915050565b60006080820190506115596000830187610f13565b6115666020830186610d93565b61157360408301856112b1565b6115806060830184610d93565b95945050505050565b6000819050919050565b6115a461159f82610e9d565b611589565b82525050565b6000819050919050565b6115c56115c082610cd4565b6115aa565b82525050565b60006115d78285611593565b6020820191506115e782846115b4565b602082019150819050939250505056fea264697066735822122059f0ef4b7d5b85d16ba0417275e3dfc948c3db59071d6691b1226532f84fa5ef64736f6c634300080c0033",
  "linkReferences": {},
  "deployedLinkReferences": {}
}